:10000000A0C00000BAC00000B8C00000B6C0000028
:10001000B4C00000B2C00000B0C00000AEC000001C
:10002000ACC00000AAC00000DBC40000A6C00000F5
:10003000A4C00000A2C00000A0C000009EC000003C
:100040009CC000009AC0000098C0000096C000004C
:1000500094C0000092C0000090C000008EC000005C
:100060008CC000008AC0000088C0000086C000006C
:1000700084C0000082C0000080C000007EC000007C
:100080007CC000007AC0000078C0000076C000008C
:1000900074C0000072C0000070C000006EC000009C
:1000A0006CC000006AC0000068C000000600FF09C4
:1000B00001A1010902150025FF750895408102097B
:1000C00003150025FF750895409102C0120110012B
:1000D00000000008EB034F200100010200010902AB
:1000E0002200010100C032090400000103000000E9
:1000F00009211101000122200007058103080005E4
:10010000040309041E034300790062006F007200BB
:100110006700200055006E00690063006F007200E8
:100120006E0000001C034C0061007300650072004B
:1001300020005200610069006E0062006F007700CD
:10014000000011241FBECFEFDAE0DEBFCDBF11E00B
:10015000A0E0B1E0ECEFF4E102C005900D92A63111
:10016000B107D9F711E0A6E1B1E001C01D92A837AF
:10017000B107E1F74BD00C947C0A42CF85B191E0F6
:10018000892785B9089585B191E0892785B90895B2
:1001900080910E0190910F01009729F001979093A3
:1001A0000F0180930E0108950895EF92FF920F932F
:1001B0001F93CF93DF93F22EE32EE801A7D088237D
:1001C00091F00F2D1E2D8F2D9E2DA3D081E4F801CF
:1001D00084AF82E485AF83E486AF17AE80E490E01D
:1001E0009983888381E0DF91CF911F910F91FF90D8
:1001F000EF90089580E091E019C780E091E0F5D696
:10020000E2EEF0E080818460808308951F93109275
:10021000190110921801109217011092160184B75B
:10022000877F84BF88E10FB6F894809360001092B6
:1002300060000FBE10E880E090E00FB6F8941093D5
:100240006100809361000FBEAED338D081E884B9DD
:1002500015B97894DCD081E056D080E091E0F8D5F3
:10026000E3D580911601909117018050904839F4A0
:10027000109217011092160185B1805885B98091AE
:100280001801909119018050924029F48AD010925F
:100290001901109218018091160190911701019691
:1002A0009093170180931601809118019091190184
:1002B00001969093190180931801CFCFECE7F0E0FD
:1002C000808180648083EAE7F0E0808186688083B3
:1002D000089590917C00907F982B90937C00809162
:1002E0007A00806480937A0080917A0086FDFCCF4A
:1002F0002091780040917900942F80E030E0282B05
:10030000392BC901089580936101089580915E01A0
:100310000895AC0180915C0190915D019093600122
:1003200080935F0110925E01109267011092660146
:1003300080E090E0E0916401F0916501DA01A80F9E
:10034000B91FE80FF91F2CE001900D922150E1F741
:100350000C968C33910571F708950F931F93CF93EB
:10036000DF938C01C0E0D0E080916101813049F4DD
:100370009C2F88272091660130916701820F931F7F
:1003800002C08C2FA6DFF8019183808321960E5F37
:100390001F4FC630D10541F7DF91CF911F910F91CB
:1003A000089580915C0190915D01D7DF80915C019F
:1003B00090915D010C9690935D0180935C0120917A
:1003C0006601309167012F5F3F4F309367012093A3
:1003D000660120915A0130915B012817390740F4DA
:1003E000809162019091630190935D0180935C0123
:1003F00020915C0130915D0180915F0190916001DD
:100400002817390719F481E080935E0108958CE381
:1004100090E050D79C019093650180936401909384
:10042000630180936201205D3F4F30935B01209315
:100430005A012053304030935D0120935C0130938A
:10044000600120935F0110925E0110926101109291
:100450006701109266010895DA019330B1F094308B
:1004600028F4913041F0923079F50AC0913211F1BF
:10047000923251F524C0ECECF0E022E130E028C0EB
:10048000EEEDF0E022E230E023C0813049F081302F
:1004900018F08230C9F40AC0E0E0F1E0849103C0B2
:1004A000E4E0F1E08491282F30E012C0E4E2F1E0D2
:1004B0008491F9CFE0EFF0E029E030E009C0ECEA08
:1004C000F0E020E230E004C0E0E0F0E020E030E0E6
:1004D000ED93FC93C90108959C01409172015091E4
:1004E00073014617570718F4F90190E044C06115ED
:1004F000710511F0AB01F8CF8091E8008E77809301
:10050000E80040E050E0F0CF8EB3882309F444C007
:10051000853009F443C08091E80083FF02C081E088
:1005200008958091E80082FD31C08091E80080FF4D
:1005300022C08091F3009091F200782F60E0292F83
:1005400030E0262B372B07C081918093F10041507A
:1005500050402F5F3F4F4115510519F028303105AC
:1005600098F390E02830310509F491E08091E8009B
:100570008E778093E8004115510531F6992321F6D5
:1005800005C08EB3882341F0853041F08091E800AA
:1005900082FFF7CF80E0089582E0089583E0089518
:1005A0009C016115710529F48091E8008B77809397
:1005B000E800F90126C08EB3882391F1853091F1CE
:1005C0008091E80083FF02C081E008958091E800F7
:1005D00082FFF1CF06C08091F1008193615070409D
:1005E00059F02091F3008091F200322F20E090E04A
:1005F000822B932B892B79F78091E8008B7780935E
:10060000E80061157105B9F605C08EB3882341F085
:10061000853041F08091E80080FFF7CF80E00895B9
:1006200082E0089583E008959C0140917201509109
:1006300073014617570718F4F90190E045C061159A
:10064000710511F0AB01F8CF8091E8008E778093AF
:10065000E80040E050E0F0CF8EB3882309F446C0B4
:10066000853009F445C08091E80083FF02C081E035
:1006700008958091E80082FD33C08091E80080FFFA
:1006800023C08091F3009091F200782F60E0292F31
:1006900030E0262B372B08C084918093F1003196EF
:1006A000415050402F5F3F4F4115510519F0283000
:1006B000310590F390E02830310509F491E0809104
:1006C000E8008E778093E8004115510529F69923BB
:1006D00009F0C2CF05C08EB3882341F0853041F0C8
:1006E0008091E80082FFF7CF80E0089582E00895CE
:1006F00083E00895BF92CF92DF92EF92FF920F9323
:100700001F93CF93DF93182F092F7B016A01D7D056
:10071000B82E8823B1F5812F902F9C01E901C114D7
:10072000D10439F0F60180819181E81AF90AC80FE5
:10073000D91F00E010E022C08091E80085FD16C0BE
:100740008091E8008E778093E8006ED3C114D104C5
:1007500049F0F60180819181800F911F9183808300
:1007600085E010C0ACD0882349F00CC089918093FB
:10077000F1000894E108F1080F5F1F4FE114F10444
:10078000D9F68B2DDF91CF911F910F91FF90EF90B4
:10079000DF90CF90BF900895382F282F2EC0822F42
:1007A0008F708093E900231721F4762F942F50E067
:1007B00006C07091EC009091ED005091F00091FF17
:1007C0001BC08091EB008E7F8093EB008091ED0049
:1007D0008D7F8093ED008091EB0081608093EB0032
:1007E0007093EC009093ED005093F0008091EE0038
:1007F00087FD02C080E008952F5F273080F23F70B0
:100800003093E90081E008950F931F93CF93DF9316
:10081000062FEC0110E02AC09881992329F16B8101
:10082000E981FA812C81892F8F70873018F5223069
:1008300010F452E001C056E040E028E030E003C090
:100840004F5F220F331F2E173F07D0F36295660FBD
:10085000660F607C991F9927991F692B4295407FED
:10086000452B9ADF882331F01F5F25961017A0F2E1
:1008700081E001C080E0DF91CF911F910F91089539
:1008800080916C0188238CF403C08EB38823B1F06F
:100890008091E80082FFF9CF8091E8008B77809308
:1008A000E80008958EB3882349F08091E80080FF26
:1008B000F9CF8091E8008E778093E8000895409109
:1008C000E4005091E50024E68091EC0080FF23C015
:1008D0008091E80080FD1DC08EB3882311F482E072
:1008E0000895853011F483E008958091EB0085FF31
:1008F00002C081E008958091E4009091E5008417A2
:10090000950711F3222311F484E008952150AC01DE
:10091000DBCF80E008958091E80082FFDDCFF9CF42
:10092000EF92FF920F931F934ED055D008ED10E039
:10093000F80180818F7780838081806880838081C7
:100940008F7D808319BC1EBA1092680110926A01D3
:100950001092690180EEE82EF12CF70180818B7FE7
:100960008083F80180818160808380E060E042E0E4
:1009700013DFE1EEF0E080818E7F8083E2EEF0E035
:10098000808181608083808188608083F70180819D
:100990008E7F8083F8018081806180831F910F9119
:1009A000FF90EF900895E8EDF0E080818F7E8083E6
:1009B000E7EDF0E080818160808384E082BF81E0A8
:1009C00080936B01ADCFE8EDF0E080818E7F808376
:1009D0001092E20008951092DA001092E10008955A
:1009E0001F920F920FB60F9211242F933F934F93A4
:1009F0005F936F937F938F939F93AF93BF93EF9387
:100A0000FF938091E10082FF0AC08091E20082FFA3
:100A100006C08091E1008B7F8093E100B9DB80917B
:100A2000DA0080FF1AC08091D80080FF16C0809144
:100A3000DA008E7F8093DA008091D90080FF0AC0AF
:100A400019BC82E089BD09B400FEFDCF81E08EBBF8
:100A500095DB03C019BC1EBA96DB8091E10080FFD4
:100A600017C08091E20080FF13C08091E2008E7F6A
:100A70008093E2008091E20080618093E2008091A7
:100A8000D80080628093D80019BC85E08EBBCBD1A2
:100A90008091E10084FF2BC08091E20084FF27C099
:100AA00019BC82E089BD09B400FEFDCF8091D80059
:100AB0008F7D8093D8008091E1008F7E8093E1004C
:100AC0008091E2008F7E8093E2008091E20081605D
:100AD0008093E20080916801882331F48091E300E3
:100AE00087FD02C081E001C084E08EBB9CD1809173
:100AF000E10083FF21C08091E20083FF1DC080914F
:100B0000E100877F8093E10082E08EBB1092680154
:100B10008091E1008E7F8093E1008091E2008E7FE2
:100B20008093E2008091E20080618093E20080E0A7
:100B300060E042E031DE77D1FF91EF91BF91AF915C
:100B40009F918F917F916F915F914F913F912F91E5
:100B50000F900FBE0F901F9018951F93DF93CF93A8
:100B6000CDB7DEB7AC970FB6F894DEBF0FBECDBFE2
:100B7000ECE6F1E08091F100819321E0E437F207A7
:100B8000C9F738DB8091E80083FF35C180916C01A3
:100B900030916D01353009F487C0363040F4313082
:100BA000C9F1313070F0333009F025C133C038302D
:100BB00009F4F4C0393009F403C1363009F01BC11F
:100BC00095C0803821F0823809F015C108C0909195
:100BD000690180916A01882399F0926011C0809127
:100BE00070018F708093E9008091EB0090E025E028
:100BF000969587952A95E1F7982F91701092E900C4
:100C00008091E800877F8093E8009093F100109234
:100C1000F100CFC0882319F0823009F0ECC090E0D9
:100C20008F719070009721F0029709F0E4C00CC01A
:100C300080916E01813009F0DEC010926A0133307C
:100C400069F580936A012AC080916E01882331F58D
:100C5000209170012F7009F4CEC02093E90080919B
:100C6000EB0080FF1BC0333021F48091EB008062E9
:100C700013C08091EB0080618093EB0081E090E0F5
:100C800002C0880F991F2A95E2F78093EA0010921C
:100C9000EA008091EB0088608093EB001092E900FD
:100CA0008091E800877F88C0882309F0A4C0109154
:100CB0006E011F778091E3008078812B8093E300A1
:100CC0008091E800877F8093E800DADD8091E8007A
:100CD00080FFFCCF8091E30080688093E3001123C4
:100CE00011F482E001C083E08EBB85C08058823061
:100CF00008F081C080916E0190916F0123E08C3DDE
:100D0000920709F033C083E08C838AE28B837FB73C
:100D1000F894DE0115966EE040E050E011E2E62F17
:100D2000F0E010935700849140FF03C082958F70CC
:100D30006F5F8F70282F30E08A3018F0C901C79696
:100D400002C0C901C0968D939D934F5F5F4F4431A0
:100D5000510529F77FBF8091E800877F8093E800E5
:100D6000CE0103966AE270E0B7DB12C060917001B9
:100D7000AE014F5F5F4F70DBBC01009709F43BC0D1
:100D80008091E800877F8093E80089819A814CDC1C
:100D90008091E8008B778093E8002DC0803859F56A
:100DA0008091E800877F8093E800809168018093BC
:100DB000F1008091E8008E778093E80061DD1BC030
:100DC0008823C9F490916E019230A8F48091E800D4
:100DD000877F8093E8009093680152DD80916801DD
:100DE000882331F48091E30087FD02C081E001C0D7
:100DF00084E08EBB02DA8091E80083FF0AC0809114
:100E0000EB0080628093EB008091E800877F809305
:100E1000E800AC960FB6F894DEBF0FBECDBFCF9101
:100E2000DF911F91089508951F938EB3882371F069
:100E30001091E9008091EC001092E9008091E800A7
:100E400083FF01C08ADE1F701093E9001F9108958F
:100E50004F925F926F927F928F929F92AF92BF92CA
:100E6000CF92DF92EF92FF920F931F93DF93CF9376
:100E700000D00F92CDB7DEB77C016DB67EB68EB3D3
:100E8000843009F099C02091E4003091E500F70129
:100E9000828593858217930709F48EC081818F70B4
:100EA0008093E9008091E80085FF86C05DB64EB66C
:100EB000408550E08DB79EB7841B950B0FB6F89414
:100EC0009EBF0FBE8DBF0DB71EB70F5F1F4F19829C
:100ED0001B821A82C02E912EC80160E070E050E0A3
:100EE00004D3C701BE016F5F7F4F40E098018E01C0
:100EF0000E5F1F4F5AD9882EF70184859585892B5F
:100F000019F4AA24BB240BC020E0F701868597853D
:100F1000892B09F021E081E02827A22EBB24F701CC
:100F2000068117810115110511F4DD2412C04A81D3
:100F30005B818C2D992DB801C2D2DD24009711F070
:100F4000DD24D394F7014085C8016C2D792D50E044
:100F5000C3D28A819B81892B01F1882021F4DD2075
:100F600011F4AB28D1F0F7018485958597878687A2
:100F700081818F708093E9008981882311F08093AB
:100F8000F1006A817B818C2D992D40E050E0B2DB2D
:100F90008091E8008E778093E8008091E400909142
:100FA000E500F70193878287252D342DC9010FB6FF
:100FB000F8949EBF0FBE8DBF0FB6F8947EBE0FBED5
:100FC0006DBE0F900F900F90CF91DF911F910F91F9
:100FD000FF90EF90DF90CF90BF90AF909F908F9059
:100FE0007F906F905F904F900895CF93DF93DC01D7
:100FF0000996FC0187E0EF0119928A95E9F781E0F3
:1010000019968C93199784EF91E01D969C938E937B
:101010001C9783E014968C931497CD01019661E0A0
:10102000F3DB811181E0DF91CF9108956F927F9280
:101030008F929F92AF92BF92CF92DF92EF92FF92E8
:101040000F931F93DF93CF9300D00F92CDB7DEB7EE
:101050006C016DB67EB68091E80083FF14C1F60185
:10106000808190E02091700130917101281739073B
:1010700009F009C180916D01833009F4ACC084305E
:1010800030F4813071F0823009F0FDC0E0C08A3068
:1010900009F4C5C08B3009F4AFC0893009F0F3C042
:1010A00056C080916C01813A09F0EDC09DB68EB6B4
:1010B0001B821A8280916E0110916F018983F60163
:1010C000408550E08DB79EB7841B950B0FB6F89402
:1010D0009EBF0FBE8DBFEDB6FEB60894E11CF11C9D
:1010E000BE2CAF2CC70160E070E050E0FED1115083
:1010F000C601BE016F5F7F4F412F97018E010E5FCA
:101100001F4F53D8F601268137812115310529F06B
:101110004085C901B70150E0DFD11092E90080910C
:10112000E800877F8093E8006A817B818B2D9A2D70
:10113000D3D98091E8008B778093E800292D382D52
:10114000C9010FB6F8949EBF0FBE8DBF9CC08091A1
:101150006C01813209F097C09DB68EB60091720184
:1011600010917301A0906E01B0906F018DB79EB782
:10117000801B910B0FB6F8949EBF0FBE8DBFEDB6CE
:10118000FEB60894E11CF11C8091E800877F8093F3
:10119000E800C701B80104DA8091E8008E778093F7
:1011A000E80080E090E0AA2011F081E090E0BA949D
:1011B000E80EF91E081B190BC6016A2D4B2D97016D
:1011C0000E94D400892D982D9C010FB6F8943EBF43
:1011D0000FBE2DBF58C080916C01813A09F053C0F9
:1011E0008091E800877F8093E8008091E80080FF8D
:1011F000FCCFF60181853FC080916C01813209F0FE
:1012000042C08091E800877F8093E80039DB90E05E
:1012100080916E01811191E0F601918734C0809137
:101220006C01813281F58091E800877F8093E8002E
:1012300027DB80916E0190916F01807036E096956A
:1012400087953A95E1F7F601958784871CC08091D0
:101250006C01813AC1F48091E800877F8093E800B7
:101260008091E80080FFFCCFF601848595859695F6
:101270008795969587958093F1008091E8008E7709
:101280008093E800FDDA0FB6F8947EBE0FBE6DBE07
:101290000F900F900F90CF91DF911F910F91FF90C2
:1012A000EF90DF90CF90BF90AF909F908F907F9006
:1012B0006F900895CF93DF93BC018230910510F4B5
:1012C00062E070E0A0917601B0917701ED01E0E07D
:1012D000F0E040E050E021C08881998186179707AF
:1012E00069F48A819B81309719F09383828304C0CB
:1012F0009093770180937601FE0134C068177907D7
:1013000038F44115510519F08417950708F4AC011C
:10131000FE018A819B819C01E9012097E9F6411534
:101320005105A9F1CA01861B970B049708F4BA016D
:10133000E0E0F0E02AC08D919C9111978417950709
:10134000F9F46417750781F412968D919C911397A7
:10135000309719F09383828304C090937701809330
:101360007601FD0132964FC0CA01861B970BFD0125
:10137000E80FF91F6193719302978D939C9343C07B
:10138000FD01828193819C01D9011097A1F6809182
:10139000740190917501892B41F480911201909113
:1013A0001301909375018093740140911401509141
:1013B00015014115510541F44DB75EB780911001FB
:1013C00090911101481B590B2091740130917501C6
:1013D00024173507B0F4CA01821B930B86179707B1
:1013E00080F0AB014E5F5F4F8417950750F0420FBE
:1013F000531F5093750140937401F90161937193E8
:1014000002C0E0E0F0E0CF01DF91CF910895CF93EB
:10141000DF93009709F450C0EC0122971B821A82D7
:10142000A0917601B0917701109709F140E050E06A
:10143000AC17BD0708F1BB83AA83FE01219131914E
:10144000E20FF31FAE17BF0779F48D919C911197AE
:10145000280F391F2E5F3F4F3983288312968D91B5
:101460009C9113979B838A834115510571F4D09306
:101470007701C093760120C012968D919C911397AD
:10148000AD01009711F0DC01D3CFFA01D383C28301
:1014900021913191E20FF31FCE17DF0769F48881A4
:1014A0009981280F391F2E5F3F4FFA013183208326
:1014B0008A819B8193838283DF91CF910895FB0181
:1014C000DC0104C08D910190801921F441505040FD
:1014D000C8F7881B990B0895FB01DC0102C001903D
:1014E0000D9241505040D8F70895DC0101C06D9332
:0C14F00041505040E0F70895F894FFCF01
:1014FC000081080000011A014000000000000000FB
:06150C0020007801000040
:00000001FF
