:100000009EC00000B7C00000B5C00000B3C0000033
:10001000B1C00000AFC00000ADC00000ABC0000028
:10002000A9C00000A7C000002EC30000A3C00000AC
:10003000A1C000009FC000009DC000009BC0000048
:1000400099C0000097C0000095C0000093C0000058
:1000500091C0000090C000008DC000008BC0000067
:1000600089C0000087C0000085C0000083C0000078
:1000700081C000007FC000007DC000007BC0000088
:1000800079C0000077C0000075C0000073C0000098
:1000900071C000006FC000006DC000006BC00000A8
:1000A00069C0000067C0000065C0000012011001B7
:1000B00002000008EB03442001000102DC010902F8
:1000C0003E00020100C032090400000102020100EA
:1000D000052400100104240206052406000107057A
:1000E00082030800FF09040100020A00000007055E
:1000F000040210000507058302100005040309042B
:100100001E034300790062006F0072006700200048
:1001100055006E00690063006F0072006E00000001
:100120001C034C0061007300650072002000520047
:10013000610069006E0062006F007700000011240A
:100140001FBECFEFDAE0DEBFCDBF11E0A0E0B1E02F
:10015000EEEEFEE002C005900D92AC31B107D9F78A
:1001600011E0ACE1B1E001C01D92AA33B107E1F7A3
:100170004FD0BBC645CF1F920F920FB60F921124DE
:100180008F939F9380911C018F5F80931C018091BE
:100190001C018F3111F410921C0190911C0180916F
:1001A0001D01981710F090E001C092E08EB18D7F94
:1001B000982B9EB99F918F910F900FBE0F901F901B
:1001C000189580E091E0A3C580E091E079C584B7FF
:1001D000877F84BF88E10FB6F89480936000109207
:1001E00060000FBE80E090E020E80FB6F894209306
:1001F0006100809361000FBE699A719827D284E6EE
:1002000087BD92E094BD81E085BD90936E00089516
:10021000DEDF80E091E060E271E0A8D4789480E2D3
:1002200091E021D6282F207E8F71922F25FF02C0CA
:1002300080931D0196FF02C080931E0127FF02C01C
:1002400080931F0180E091E0D8D441D4E8CFDA0157
:10025000923049F0933061F09130F9F4ECEAF0E03B
:1002600022E130E01EC0EEEBF0E02EE330E019C0FA
:10027000813049F0813018F0823079F408C0ECEF19
:10028000F0E0849107C0E0E0F1E0849103C0E0E297
:10029000F1E08491282F30E004C0E0E0F0E020E0BD
:1002A00030E0ED93FC93C90108959C014091380121
:1002B000509139014617570718F4F90190E044C0EE
:1002C0006115710511F0AB01F8CF8091E8008E77D0
:1002D0008093E80040E050E0F0CF8EB3882309F42B
:1002E00044C0853009F443C08091E80083FF02C018
:1002F00081E008958091E80082FD31C08091E8009E
:1003000080FF22C08091F3009091F200782F60E08E
:10031000292F30E0262B372B07C081918093F100E5
:10032000415050402F5F3F4F4115510519F0283083
:10033000310598F390E02830310509F491E080917F
:10034000E8008E778093E8004115510531F6992336
:1003500021F605C08EB3882341F0853041F08091AD
:10036000E80082FFF7CF80E0089582E0089583E0FF
:1003700008959C0140913801509139014617570763
:1003800018F4F90190E045C06115710511F0AB0159
:10039000F8CF8091E8008E778093E80040E050E04D
:1003A000F0CF8EB3882309F446C0853009F445C0E8
:1003B0008091E80083FF02C081E008958091E80009
:1003C00082FD33C08091E80080FF23C08091F3005C
:1003D0009091F200782F60E0292F30E0262B372B08
:1003E00008C084918093F1003196415050402F5FB6
:1003F0003F4F4115510519F02830310590F390E039
:100400002830310509F491E08091E8008E778093DF
:10041000E8004115510529F6992309F0C2CF05C01E
:100420008EB3882341F0853041F08091E80082FF4F
:10043000F7CF80E0089582E0089583E00895382F93
:10044000282F2EC0822F8F708093E900231721F46C
:10045000762F942F50E006C07091EC009091ED0043
:100460005091F00091FF1BC08091EB008E7F809334
:10047000EB008091ED008D7F8093ED008091EB008B
:1004800081608093EB007093EC009093ED005093AB
:10049000F0008091EE0087FD02C080E008952F5F9C
:1004A000273080F23F703093E90081E008950F9388
:1004B0001F93CF93DF93062FEC0110E02AC09881A1
:1004C000992329F16B81E981FA812C81892F8F7021
:1004D000873018F5223010F452E001C056E040E0B9
:1004E00028E030E003C04F5F220F331F2E173F0775
:1004F000D0F36295660F660F607C991F9927991F4C
:10050000692B4295407F452B9ADF882331F01F5F8E
:1005100025961017A0F281E001C080E0DF91CF9115
:100520001F910F9108958091320188238CF403C0AC
:100530008EB38823B1F08091E80082FFF9CF8091DB
:10054000E8008B778093E80008958EB3882349F004
:100550008091E80080FFF9CF8091E8008E7780934A
:10056000E80008954091E4005091E50024E6809170
:10057000EC0080FF23C08091E80080FD1DC08EB399
:10058000882311F482E00895853011F483E0089502
:100590008091EB0085FF02C081E008958091E40026
:1005A0009091E5008417950711F3222311F484E05C
:1005B00008952150AC01DBCF80E008958091E800E0
:1005C00082FFDDCFF9CFEF92FF920F931F934ED0B2
:1005D00055D008ED10E0F80180818F77808380810D
:1005E0008068808380818F7D808319BC1EBA1092C1
:1005F0002E011092300110922F0180EEE82EF12C86
:10060000F70180818B7F8083F80180818160808306
:1006100080E060E042E013DFE1EEF0E080818E7F79
:100620008083E2EEF0E08081816080838081886059
:100630008083F70180818E7F8083F80180818061D3
:1006400080831F910F91FF90EF900895E8EDF0E007
:1006500080818F7E8083E7EDF0E080818160808300
:1006600084E082BF81E080933101ADCFE8EDF0E01E
:1006700080818E7F80831092E20008951092DA00CC
:100680001092E10008951F920F920FB60F9211245D
:100690002F933F934F935F936F937F938F939F938A
:1006A000AF93BF93EF93FF938091E10082FF0AC065
:1006B0008091E20082FF06C08091E1008B7F8093F1
:1006C000E10004D28091DA0080FF1AC08091D80046
:1006D00080FF16C08091DA008E7F8093DA008091CF
:1006E000D90080FF0AC019BC82E089BD09B400FEB0
:1006F000FDCF81E08EBBEAD103C019BC1EBAE6D1A2
:100700008091E10080FF17C08091E20080FF13C05C
:100710008091E2008E7F8093E2008091E200806110
:100720008093E2008091D80080628093D80019BC49
:1007300085E08EBBCBD18091E10084FF2BC08091FE
:10074000E20084FF27C019BC82E089BD09B400FE25
:10075000FDCF8091D8008F7D8093D8008091E100FB
:100760008F7E8093E1008091E2008F7E8093E20093
:100770008091E20081608093E20080912E018823C5
:1007800031F48091E30087FD02C081E001C084E084
:100790008EBB9CD18091E10083FF21C08091E2005B
:1007A00083FF1DC08091E100877F8093E10082E09C
:1007B0008EBB10922E018091E1008E7F8093E1002C
:1007C0008091E2008E7F8093E2008091E200806160
:1007D0008093E20080E060E042E031DE77D1FF917B
:1007E000EF91BF91AF919F918F917F916F915F91A9
:1007F0004F913F912F910F900FBE0F901F90189522
:100800001F93DF93CF93CDB7DEB7AC970FB6F894B5
:10081000DEBF0FBECDBFE2E3F1E08091F100819336
:1008200021E0EA33F207C9F7CCDC8091E80083FFCE
:1008300035C18091320130913301353009F487C0E0
:10084000363040F43130C9F1313070F0333009F0D6
:1008500025C133C0383009F4F4C0393009F403C17C
:10086000363009F01BC195C0803821F0823809F07C
:1008700015C108C090912F0180913001882399F013
:10088000926011C0809136018F708093E900809151
:10089000EB0090E025E0969587952A95E1F7982F53
:1008A00091701092E9008091E800877F8093E800C2
:1008B0009093F1001092F100CFC0882319F082309C
:1008C00009F0ECC090E08F719070009721F00297D2
:1008D00009F0E4C00CC080913401813009F0DEC021
:1008E00010923001333069F5809330012AC0809135
:1008F0003401882331F5209136012F7009F4CEC0E0
:100900002093E9008091EB0080FF1BC0333021F47D
:100910008091EB00806213C08091EB008061809336
:10092000EB0081E090E002C0880F991F2A95E2F762
:100930008093EA001092EA008091EB008860809337
:10094000EB001092E9008091E800877F88C088233F
:1009500009F0A4C0109134011F778091E3008078E2
:10096000812B8093E3008091E800877F8093E800EB
:10097000DADD8091E80080FFFCCF8091E3008068A1
:100980008093E300112311F482E001C083E08EBB69
:1009900085C08058823008F081C0809134019091E8
:1009A000350123E08C3D920709F033C083E08C834E
:1009B0008AE28B837FB7F894DE0115966EE040E003
:1009C00050E011E2E62FF0E010935700849140FFD1
:1009D00003C082958F706F5F8F70282F30E08A3050
:1009E00018F0C901C79602C0C901C0968D939D93A6
:1009F0004F5F5F4F4431510529F77FBF8091E80079
:100A0000877F8093E800CE0103966AE270E04DDCB8
:100A100012C060913601AE014F5F5F4F18DCBC0120
:100A2000009709F43BC08091E800877F8093E8003D
:100A300089819A819EDC8091E8008B778093E80021
:100A40002DC0803859F58091E800877F8093E800B9
:100A500080912E018093F1008091E8008E77809341
:100A6000E80061DD1BC08823C9F490913401923005
:100A7000A8F48091E800877F8093E80090932E018E
:100A800052DD80912E01882331F48091E30087FDAF
:100A900002C081E001C084E08EBB96DB8091E8005B
:100AA00083FF0AC08091EB0080628093EB0080910D
:100AB000E800877F8093E800AC960FB6F894DEBF1D
:100AC0000FBECDBFCF91DF911F91089508951F9361
:100AD0008EB3882371F01091E9008091EC001092A0
:100AE000E9008091E80083FF01C08ADE1F70109347
:100AF000E9001F910895FC018EB3843099F5848933
:100B00009589A689B7890097A105B10559F1868114
:100B10008F708093E9008091E80082FF23C04091AC
:100B2000F3002091F200942F80E030E0822B932B91
:100B3000892B19F46FEF7FEF04C08091F100682FCB
:100B400070E04091F3002091F200942F80E030E0BB
:100B5000822B932B892B41F48091E8008B77809333
:100B6000E80002C06FEF7FEFCB010895FB012EE09C
:100B7000DB011D922A95E9F723E0238321E536E086
:100B80003187208724E136E0338722879587848761
:100B900008950895FC018EB3843051F584899589B8
:100BA000A689B7890097A105B10511F181818F70E0
:100BB0008093E9004091F3002091F200942F80E0AF
:100BC00030E0822B932B892BA9F09091E800809143
:100BD000E8008E778093E80095FD0CC0C3DC982F69
:100BE000882349F48091E8008E778093E80003C061
:100BF00092E001C090E0892F0895FC018EB384300B
:100C000091F484899589A689B7890097A105B105D2
:100C100051F081818F708093E9008091E80080FF1E
:100C200002C0CF01B7CF0895CF93DF93EC010AC084
:100C30008EB3882319F42EEF3FEF0AC08C859D8573
:100C4000DCDF45DF8C859D8556DF9C0197FDF0CF6D
:100C5000C901DF91CF9108951F93FC01162F8EB328
:100C60008430E1F484899589A689B7890097A10524
:100C7000B105A1F081818F708093E9008091E80037
:100C800085FD08C08091E8008E778093E8006ADCDB
:100C9000882329F41093F10080E001C082E01F91C5
:100CA0000895282FFB0184859585622FD5DF882341
:100CB00019F420E030E002C02FEF3FEFC9010895A2
:100CC000CF93DF93EC014096FC018BE0DF011D9296
:100CD0008A95E9F782E08C83898783E08E87CE014D
:100CE000019661E0E4DB882371F0CE01069661E0B5
:100CF000DEDB882341F0CE010B9661E0D8DB882350
:100D000019F081E001C080E0DF91CF910895CF9389
:100D1000DF93EC018091E80083FFA2C0888190E01E
:100D200020913601309137012817390709F098C012
:100D300080913301813269F0823220F4803209F0EF
:100D40008FC03CC0823209F46AC0833209F088C087
:100D500079C080913201813A09F082C08091E80027
:100D6000877F8093E8008091E80080FFFCCF8C892A
:100D70009D89AE89BF898093F100292F3A2F4B2F8F
:100D800055272093F1009D01442755272093F1001A
:100D90008B2F9927AA27BB278093F100888D8093FA
:100DA000F100898D8093F1008A8D8093F10080910C
:100DB000E8008E778093E800B6DB52C08091320164
:100DC000813209F04DC08091E800877F8093E80070
:100DD00004C08EB3882309F443C08091E80082FFE9
:100DE000F8CF8091F1009091F1002091F1003091C5
:100DF000F1008C8B9D8B2E8B3F8B8091F100888F27
:100E00008091F100898F8091F1008A8F8091E800B4
:100E10008B778093E80087DBCE01BBDE21C0809119
:100E200032018132E9F48091E800877F8093E80005
:100E30007ADB8091340190913501998B888BCE01BA
:100E4000A8DE0EC080913201813251F48091E80019
:100E5000877F8093E80067DBCE016091340199DEE3
:100E6000DF91CF910895CF93DF93EC014B8140FF49
:100E70001AC046FF0AC04F7B4B838E819F8101962B
:100E80009F838E838A81282F2BC042FF13C0E88165
:100E9000F9818081282F332727FD309521153105D1
:100EA00029F440624B832FEF3FEF1BC03196F9834B
:100EB000E88311C0EA85FB85CE0109959C0197FF67
:100EC0000AC09B812F5F3F4F11F080E201C080E19B
:100ED000892B8B83E8CF8E819F8101969F838E83A0
:0E0EE00030E0C901DF91CF910895F894FFCF63
:100EEE0000831000000104100000018208000001C0
:0C0EFE00000000000000000000000000E8
:00000001FF
