:10000000AFC00000C9C00000C7C00000C5C00000EC
:10001000C3C00000C1C00000BFC00000BDC00000E0
:10002000BBC00000B9C00000DAC50000B5C00000C8
:10003000B3C00000B1C00000AFC00000ADC0000000
:10004000ABC00000A9C00000A7C00000A5C0000010
:10005000A3C00000A1C000009FC000009DC0000020
:100060009BC0000099C0000097C0000095C0000030
:1000700093C0000091C000008FC000008DC0000040
:100080008BC0000089C0000087C0000085C0000050
:1000900083C0000081C000007FC000007DC0000060
:1000A0007BC0000079C0000077C0000005A84CCDDF
:1000B000B2D44EB93836A9020C50B9918688083CA2
:1000C000A6AAAA2ABE000000803F0600FF0901A1DF
:1000D000010902150025FF750895808102090315A5
:1000E0000025FF750895809102C0120110010000E3
:1000F0000008EB034F200100010200010902220069
:10010000010100C0320904000001030000000921C0
:1001100011010001222000070581034000050403AE
:1001200009041E034300790062006F00720067003B
:10013000200055006E00690063006F0072006E00C1
:1001400000001C034C006100730065007200200079
:100150005200610069006E0062006F0077000000CD
:1001600011241FBECFEFDAE0DEBFCDBF11E0A0E06B
:10017000B1E0E4E5FBE102C005900D92A631B107C4
:10018000D9F711E0A6E1B1E001C01D92AE3BB10785
:10019000E1F733D00C94A80D33CF85B191E08927D6
:1001A00085B9089585B191E0892785B90895809131
:1001B0000E0190910F01009729F0019790930F0184
:1001C00080930E0108950895CF93DF93E90197D0AE
:1001D000882319F0CE0196D081E0DF91CF91089568
:1001E00080E091E00C94150980E091E0FDD7E2EE0B
:1001F000F0E080818460808308951F93109219013C
:1002000010921801109217011092160184B7877F7F
:1002100084BF88E10FB6F89480936000109260006C
:100220000FBE10E880E090E00FB6F89410936100E4
:10023000809361000FBEB6D43AD081E884B915B975
:10024000789481E090E09DD182E056D080E091E00A
:10025000FED6E9D680911601909117018050904208
:1002600039F4109217011092160185B1805885B9A2
:1002700080911801909119018038910529F44BD192
:100280001092190110921801809116019091170196
:100290000196909317018093160180911801909117
:1002A000190101969093190180931801CFCFECE7C3
:1002B000F0E0808180648083EAE7F0E080818668F6
:1002C0008083089590917C00907F982B90937C0080
:1002D00080917A00806480937A0080917A0086FD14
:1002E000FCCF2091780040917900942F80E030E09D
:1002F000282B392BC90108958093A5010895809179
:100300009E0108958F929F92AF92BF92CF92DF92FB
:10031000EF92FF920F931F93CF93DF934C01809145
:100320009C0190919D019093A00180939F01109258
:100330009E011092A9011092A801EE24FF248701CA
:10034000AA24BB2465012AC0E091A601F091A7016F
:10035000E60FF71FC901880F991F0190F081E02D6A
:10036000E80FF91F80819181899399930894A11CCA
:10037000B11CC11CD11C2F5F3F4F4F4F5F4F80916D
:10038000AC0190E0A0E0B0E0281739074A075B070E
:10039000D8F20894E11CF11C011D111D8091AD01E2
:1003A00090E0A0E0B0E0E816F9060A071B0768F441
:1003B000B701660F771FE501CC0FDD1FC80DD91DF2
:1003C00020E030E040E050E0DACFDF91CF911F91A4
:1003D0000F91FF90EF90DF90CF90BF90AF909F90E4
:1003E0008F900895BC0140E020E030E0E1E0F0E0D3
:1003F000CF01022E02C0880F991F0A94E2F78623CC
:100400009723892B09F04F5F2F5F3F4F2031310534
:1004100079F7842F0895282F8091A501813049F420
:10042000922F80E06091A8017091A901680F791F57
:1004300034C0823079F58091AA019091AB01019688
:100440009093AB018093AA018856914021F41092B9
:10045000AB011092AA016091AA017091AB0180E0FA
:1004600090E00E94EB0A2FE837EE4EE85CE30E9432
:10047000790B0E94DC0B20E030E040E85FE30E9453
:100480005B0A20E030E040E054E40E94790B0E94D7
:10049000BF0A03C0822F16DFBC01CB010895AF92C3
:1004A000BF92CF92DF92FF920F931F93CF93DF9370
:1004B0006C01FF24C0E0D0E011E0A12EB12CC501F9
:1004C0000C2E02C0880F991F0A94E2F72091A30115
:1004D0003091A40182239323892B79F08F2D90E012
:1004E000880F991FF60100811181080F191F8C2FA9
:1004F00092DFF80191838083F3942196CC30D1056B
:10050000F1F6DF91CF911F910F91FF90DF90CF9087
:10051000BF90AF90089580919C0190919D01BFDFA5
:1005200080919C0190919D01029690939D018093F2
:100530009C012091A8013091A9012F5F3F4F30937A
:10054000A9012093A80120919A0130919B012817BD
:10055000390740F48091A1019091A20190939D01EF
:1005600080939C0120919C0130919D0180919F017D
:100570009091A0012817390719F481E080939E011A
:100580000895FF920F931F939093A4018093A3016A
:1005900029DF8093AC018D3018F08CE08093AC01A2
:1005A0006091AC0180E490E070E00E945F0C862FC7
:1005B0006093AD0190E0A0E0B0E0880F991FAA1F02
:1005C000BB1F0E94860C8093A6019093A701FF2475
:1005D00011C00F2D10E0000F111F020F131F80918B
:1005E000AC0190E0880F991F0E94860CF80180836F
:1005F0009183F3944091AD012091A6013091A70120
:10060000F41638F33093A2012093A10181E090E029
:10061000841B9109880F991FA901481B590B5093FE
:100620009B0140939A0130939D0120939C0130934C
:10063000A00120939F0110929E011092A50110929B
:10064000A9011092A8011092AB011092AA011F916A
:100650000F91FF900895DA019330B1F0943028F4AF
:10066000913041F0923079F50AC0913211F1923215
:1006700051F524C0EAEEF0E022E130E028C0ECEFD2
:10068000F0E022E230E023C0813049F0813018F000
:100690008230C9F40AC0EEE1F1E0849103C0E2E2E5
:1006A000F1E08491282F30E012C0E2E4F1E084917F
:1006B000F9CFEEE0F1E029E030E009C0EAECF0E04B
:1006C00020E230E004C0E0E0F0E020E030E0ED9334
:1006D000FC93C90108959C014091B8015091B90162
:1006E0004617570718F4F90190E044C061157105E9
:1006F00011F0AB01F8CF8091E8008E778093E8008D
:1007000040E050E0F0CF8EB3882309F444C0853038
:1007100009F443C08091E80083FF02C081E008959E
:100720008091E80082FD31C08091E80080FF22C006
:100730008091F3009091F200782F60E0292F30E053
:10074000262B372B07C081918093F10041505040F8
:100750002F5F3F4F4115510519F02830310598F3AF
:1007600090E02830310509F491E08091E8008E771F
:100770008093E8004115510531F6992321F605C013
:100780008EB3882341F0853041F08091E80082FFEC
:10079000F7CF80E0089582E0089583E008959C01FA
:1007A0006115710529F48091E8008B778093E8004A
:1007B000F90126C08EB3882391F1853091F18091A3
:1007C000E80083FF02C081E008958091E80082FF85
:1007D000F1CF06C08091F10081936150704059F0D3
:1007E0002091F3008091F200322F20E090E0822BE4
:1007F000932B892B79F78091E8008B778093E80021
:1008000061157105B9F605C08EB3882341F08530B6
:1008100041F08091E80080FFF7CF80E0089582E00A
:10082000089583E008959C014091B8015091B90169
:100830004617570718F4F90190E045C06115710596
:1008400011F0AB01F8CF8091E8008E778093E8003B
:1008500040E050E0F0CF8EB3882309F446C08530E5
:1008600009F445C08091E80083FF02C081E008954B
:100870008091E80082FD33C08091E80080FF23C0B2
:100880008091F3009091F200782F60E0292F30E002
:10089000262B372B08C084918093F100319641506C
:1008A00050402F5F3F4F4115510519F02830310559
:1008B00090F390E02830310509F491E08091E80050
:1008C0008E778093E8004115510529F6992309F0A8
:1008D000C2CF05C08EB3882341F0853041F08091AE
:1008E000E80082FFF7CF80E0089582E0089583E07A
:1008F0000895BF92CF92DF92EF92FF920F931F93D2
:10090000CF93DF93182F092F7B016A01D7D0B82E20
:100910008823B1F5812F902F9C01E901C114D104E6
:1009200039F0F60180819181E81AF90AC80FD91FC0
:1009300000E010E022C08091E80085FD16C08091A3
:10094000E8008E778093E8006ED3C114D10449F09B
:10095000F60180819181800F911F9183808385E0D2
:1009600010C0ACD0882349F00CC089918093F1006D
:100970000894E108F1080F5F1F4FE114F104D9F664
:100980008B2DDF91CF911F910F91FF90EF90DF9012
:10099000CF90BF900895382F282F2EC0822F8F70B0
:1009A0008093E900231721F4762F942F50E006C09E
:1009B0007091EC009091ED005091F00091FF1BC000
:1009C0008091EB008E7F8093EB008091ED008D7F16
:1009D0008093ED008091EB0081608093EB00709339
:1009E000EC009093ED005093F0008091EE0087FDB5
:1009F00002C080E008952F5F273080F23F7030936F
:100A0000E90081E008950F931F93CF93DF93062FA2
:100A1000EC0110E02AC09881992329F16B81E981CA
:100A2000FA812C81892F8F70873018F5223010F4CD
:100A300052E001C056E040E028E030E003C04F5FE4
:100A4000220F331F2E173F07D0F36295660F660FF4
:100A5000607C991F9927991F692B4295407F452BF0
:100A60009ADF882331F01F5F25961017A0F281E0EE
:100A700001C080E0DF91CF911F910F910895809187
:100A8000B20188238CF403C08EB38823B1F0809127
:100A9000E80082FFF9CF8091E8008B778093E8002F
:100AA00008958EB3882349F08091E80080FFF9CF44
:100AB0008091E8008E778093E80008954091E400EB
:100AC0005091E50024E68091EC0080FF23C08091E6
:100AD000E80080FD1DC08EB3882311F482E00895E4
:100AE000853011F483E008958091EB0085FF02C00A
:100AF00081E008958091E4009091E50084179507C6
:100B000011F3222311F484E008952150AC01DBCFCE
:100B100080E008958091E80082FFDDCFF9CFEF9269
:100B2000FF920F931F934ED055D008ED10E0F801BF
:100B300080818F77808380818068808380818F7DB2
:100B4000808319BC1EBA1092AE011092B0011092AF
:100B5000AF0180EEE82EF12CF70180818B7F80833E
:100B6000F80180818160808380E060E042E013DFF3
:100B7000E1EEF0E080818E7F8083E2EEF0E0808124
:100B800081608083808188608083F70180818E7F8F
:100B90008083F8018081806180831F910F91FF9095
:100BA000EF900895E8EDF0E080818F7E8083E7ED9F
:100BB000F0E080818160808384E082BF81E0809367
:100BC000B101ADCFE8EDF0E080818E7F808310929F
:100BD000E20008951092DA001092E10008951F9249
:100BE0000F920FB60F9211242F933F934F935F9361
:100BF0006F937F938F939F93AF93BF93EF93FF93E5
:100C00008091E10082FF0AC08091E20082FF06C06D
:100C10008091E1008B7F8093E100C9DA8091DA0056
:100C200080FF1AC08091D80080FF16C08091DA0042
:100C30008E7F8093DA008091D90080FF0AC019BCB2
:100C400082E089BD09B400FEFDCF81E08EBBA5DA4C
:100C500003C019BC1EBAA6DA8091E10080FF17C05C
:100C60008091E20080FF13C08091E2008E7F80932C
:100C7000E2008091E20080618093E2008091D800E0
:100C800080628093D80019BC85E08EBBCBD1809167
:100C9000E10084FF2BC08091E20084FF27C019BCD3
:100CA00082E089BD09B400FEFDCF8091D8008F7D20
:100CB0008093D8008091E1008F7E8093E100809145
:100CC000E2008F7E8093E2008091E2008160809359
:100CD000E2008091AE01882331F48091E30087FD2A
:100CE00002C081E001C084E08EBB9CD18091E10014
:100CF00083FF21C08091E20083FF1DC08091E1004D
:100D0000877F8093E10082E08EBB1092AE018091DC
:100D1000E1008E7F8093E1008091E2008E7F8093DE
:100D2000E2008091E20080618093E20080E060E078
:100D300042E031DE77D1FF91EF91BF91AF919F916A
:100D40008F917F916F915F914F913F912F910F9074
:100D50000FBE0F901F9018951F93DF93CF93CDB7C1
:100D6000DEB7AC970FB6F894DEBF0FBECDBFE2EB97
:100D7000F1E08091F100819321E0EA3BF207C9F7AD
:100D80002FDA8091E80083FF35C18091B201309164
:100D9000B301353009F487C0363040F43130C9F141
:100DA000313070F0333009F025C133C0383009F4E8
:100DB000F4C0393009F403C1363009F01BC195C0C5
:100DC000803821F0823809F015C108C09091AF0138
:100DD0008091B001882399F0926011C08091B60192
:100DE0008F708093E9008091EB0090E025E096956C
:100DF00087952A95E1F7982F91701092E9008091DC
:100E0000E800877F8093E8009093F1001092F10052
:100E1000CFC0882319F0823009F0ECC090E08F71C8
:100E20009070009721F0029709F0E4C00CC0809107
:100E3000B401813009F0DEC01092B001333069F5A1
:100E40008093B0012AC08091B401882331F52091AC
:100E5000B6012F7009F4CEC02093E9008091EB0019
:100E600080FF1BC0333021F48091EB00806213C0FF
:100E70008091EB0080618093EB0081E090E002C004
:100E8000880F991F2A95E2F78093EA001092EA00F2
:100E90008091EB0088608093EB001092E9008091D4
:100EA000E800877F88C0882309F0A4C01091B401AE
:100EB0001F778091E3008078812B8093E3008091FD
:100EC000E800877F8093E800DADD8091E80080FF0A
:100ED000FCCF8091E30080688093E300112311F43C
:100EE00082E001C083E08EBB85C08058823008F06C
:100EF00081C08091B4019091B50123E08C3D9207AF
:100F000009F033C083E08C838AE28B837FB7F89447
:100F1000DE0115966EE040E050E011E2E62FF0E0D1
:100F200010935700849140FF03C082958F706F5FCC
:100F30008F70282F30E08A3018F0C901C79602C0A0
:100F4000C901C0968D939D934F5F5F4F443151050A
:100F500029F77FBF8091E800877F8093E800CE016A
:100F600003966AE270E0B7DB12C06091B601AE0191
:100F70004F5F5F4F70DBBC01009709F43BC080916D
:100F8000E800877F8093E80089819A814CDC80911A
:100F9000E8008B778093E8002DC0803859F5809168
:100FA000E800877F8093E8008091AE018093F10094
:100FB0008091E8008E778093E80061DD1BC0882374
:100FC000C9F49091B4019230A8F48091E800877F31
:100FD0008093E8009093AE0152DD8091AE018823AA
:100FE00031F48091E30087FD02C081E001C084E01C
:100FF0008EBBFAD88091E80083FF0AC08091E80098
:10100000877F8093E8008091EB0080628093EB0003
:10101000AC960FB6F894DEBF0FBECDBFCF91DF9177
:101020001F91089508951F938EB3882371F0109136
:10103000E9008091EC001092E9008091E80083FFC4
:1010400001C08ADE1F701093E9001F9108954F922E
:101050005F926F927F928F929F92AF92BF92CF9248
:10106000DF92EF92FF920F931F93DF93CF9300D005
:101070000F92CDB7DEB77C016DB67EB68EB38430ED
:1010800009F099C02091E4003091E500F7018285D4
:1010900093858217930709F48EC081818F708093A6
:1010A000E9008091E80085FF86C05DB64EB64085B8
:1010B00050E08DB79EB7841B950B0FB6F8949EBF7A
:1010C0000FBE8DBF0DB71EB70F5F1F4F19821B825A
:1010D0001A82C02E912EC80160E070E050E031D538
:1010E000C701BE016F5F7F4F40E098018E010E5F28
:1010F0001F4F6AD8882EF70184859585892B19F4AE
:10110000AA24BB240BC020E0F70186859785892B94
:1011100009F021E081E02827A22EBB24F7010681F7
:1011200017810115110511F4DD2412C04A815B817C
:101130008C2D992DB801EFD4DD24009711F0DD241A
:10114000D394F7014085C8016C2D792D50E0F0D47F
:101150008A819B81892B01F1882021F4DD2011F403
:10116000AB28D1F0F70184859585978786878181A3
:101170008F708093E9008981882311F08093F100BA
:101180006A817B818C2D992D40E050E0B2DB80910B
:10119000E8008E778093E8008091E4009091E5006C
:1011A000F70193878287252D342DC9010FB6F89456
:1011B0009EBF0FBE8DBF0FB6F8947EBE0FBE6DBE34
:1011C0000F900F900F90CF91DF911F910F91FF9093
:1011D000EF90DF90CF90BF90AF909F908F907F90D7
:1011E0006F905F904F900895CF93DF93DC01099645
:1011F000FC0187E0EF0119928A95E9F781E01996E1
:101200008C93199784EF91E01D969C938E931C9775
:1012100083E014968C931497CD01019661E0F3DB83
:10122000811181E0DF91CF9108956F927F928F922B
:101230009F92AF92BF92CF92DF92EF92FF920F9365
:101240001F93DF93CF9300D00F92CDB7DEB76C0121
:101250006DB67EB68091E80083FF15C1F6018081EE
:1012600090E02091B6013091B7012817390709F0B5
:101270000AC18091B301833009F4ADC0843030F4E9
:10128000813071F0823009F0FEC0E1C08A3009F48B
:10129000C6C08B3009F4B0C0893009F0F4C057C023
:1012A0008091B201813A09F0EEC09DB68EB61B82E4
:1012B0001A828091B4011091B5018983F6014085AD
:1012C00050E08DB79EB7841B950B0FB6F8949EBF68
:1012D0000FBE8DBFEDB6FEB60894E11CF11CBE2C0E
:1012E000AF2CC70160E070E050E02BD41150C60174
:1012F000BE016F5F7F4F412F97018E010E5F1F4F21
:101300000E94E400F601268137812115310529F07C
:101310004085C901B70150E00BD41092E9008091DB
:10132000E800877F8093E8006A817B818B2D9A2D6E
:10133000D2D98091E8008B778093E800292D382D51
:10134000C9010FB6F8949EBF0FBE8DBF9CC080919F
:10135000B201813209F097C09DB68EB60091B801F6
:101360001091B901A090B401B090B5018DB79EB7AE
:10137000801B910B0FB6F8949EBF0FBE8DBFEDB6CC
:10138000FEB60894E11CF11C8091E800877F8093F1
:10139000E800C701B80103DA8091E8008E778093F6
:1013A000E80080E090E0AA2011F081E090E0BA949B
:1013B000E80EF91E081B190BC6016A2D4B2D97016B
:1013C0000E94E300892D982D9C010FB6F8943EBF32
:1013D0000FBE2DBF58C08091B201813A09F053C0B1
:1013E0008091E800877F8093E8008091E80080FF8B
:1013F000FCCFF60181853FC08091B201813209F0B6
:1014000042C08091E800877F8093E80038DB90E05D
:101410008091B401811191E0F601918734C08091EF
:10142000B201813281F58091E800877F8093E800E6
:1014300026DB8091B4019091B501807036E09695DD
:1014400087953A95E1F7F601958784871CC08091CE
:10145000B201813AC1F48091E800877F8093E8006F
:101460008091E80080FFFCCFF601848595859695F4
:101470008795969587958093F1008091E8008E7707
:101480008093E800FCDA0FB6F8947EBE0FBE6DBE06
:101490000F900F900F90CF91DF911F910F91FF90C0
:1014A000EF90DF90CF90BF90AF909F908F907F9004
:1014B0006F9008955058BB27AA270ED0E0C0D1D016
:1014C00030F0D6D020F031F49F3F11F41EF4C6C0A6
:1014D0000EF4E095E7FBBCC0E92FE2D080F3BA1729
:1014E000620773078407950718F071F49EF5FAC038
:1014F0000EF4E0950B2EBA2FA02D0B01B90190012F
:101500000C01CA01A0011124FF27591B99F0593F72
:1015100050F4503E68F11A16F040A22F232F342FBA
:101520004427585FF3CF469537952795A795F04008
:101530005395C9F77EF41F16BA0B620B730B840B1D
:10154000BAF09150A1F0FF0FBB1F661F771F881FD5
:10155000C2F70EC0BA0F621F731F841F48F487952D
:1015600077956795B795F7959E3F08F0B3CF93951C
:10157000880F08F09927EE0F97958795089598D0D2
:1015800088F09F5790F0B92F9927B751A0F0D1F06C
:10159000660F771F881F991F1AF0BA95C9F712C0F6
:1015A000B13081F09FD0B1E008959CC0672F782FB3
:1015B0008827B85F39F0B93FCCF386957795679562
:1015C000B395D9F73EF490958095709561957F4FCE
:1015D0008F4F9F4F0895E89409C097FB3EF4909574
:1015E0008095709561957F4F8F4F9F4F9923A9F0FC
:1015F000F92F96E9BB279395F6958795779567958B
:10160000B795F111F8CFFAF4BB0F11F460FF1BC0CE
:101610006F5F7F4F8F4F9F4F16C0882311F096E961
:1016200011C0772321F09EE8872F762F05C066230F
:1016300071F096E8862F70E060E02AF09A95660FC8
:10164000771F881FDAF7880F9695879597F9089581
:1016500097F99F6780E870E060E008959FEF80EC65
:10166000089500240A941616170618060906089508
:1016700000240A9412161306140605060895092E6E
:101680000394000C11F4882352F0BB0F40F4BF2BDD
:1016900011F460FF04C06F5F7F4F8F4F9F4F08951D
:1016A00057FD9058440F551F59F05F3F71F0479513
:1016B000880F97FB991F61F09F3F79F087950895F8
:1016C000121613061406551FF2CF4695F1DF08C017
:1016D000161617061806991FF1CF86957105610534
:1016E00008940895E894BB2766277727CB0197F9DC
:1016F00008950BD0C4CFB5DF28F0BADF18F09523DA
:1017000009F0A6CFABCF1124EECFCADFA0F3959F8F
:10171000D1F3950F50E0551F629FF001729FBB27D8
:10172000F00DB11D639FAA27F00DB11DAA1F649F84
:101730006627B00DA11D661F829F2227B00DA11D37
:10174000621F739FB00DA11D621F839FA00D611DBD
:10175000221F749F3327A00D611D231F849F600DDE
:10176000211D822F762F6A2F11249F5750408AF017
:10177000E1F088234AF0EE0FFF1FBB1F661F771FA3
:10178000881F91505040A9F79E3F510570F060CFDF
:10179000AACF5F3FECF3983EDCF38695779567958B
:1017A000B795F795E7959F5FC1F7FE2B880F911DC1
:1017B0009695879597F908959F9305D00F9007FC0C
:1017C000EE5F28C04BCF74DFE8F3E894E0E0BB277E
:1017D0009F57F0F02AED3FE049EC06C0EE0FBB0F3B
:1017E000661F771F881F28F0B23A620773078407C5
:1017F00028F0B25A620B730B840BE3959A9572F73B
:10180000803830F49A95BB0F661F771F881FD2F778
:10181000904813C0EF93E0FF06C0A2EA2AED3FE034
:1018200049EC5FEB59DE2BDF0F90039401FC9058DD
:10183000ECEAF0E00EC09F3F31F0915020F4879524
:1018400077956795B795880F911D9695879597F928
:1018500008959F938F937F936F93FF93EF939B01D3
:10186000AC0147DFEF91FF9105D02F913F914F9150
:101870005F913FCFDF93CF931F930F93FF92EF9230
:10188000DF927B018C01689405C0DA2EEF013DDF09
:10189000FE01E894A5912591359145915591AEF3BE
:1018A000EF011ADEFE019701A801DA9479F7DF90C3
:1018B000EF90FF900F911F91CF91DF91089597FBCB
:1018C000092E07260AD077FD04D00CD006D00020C0
:1018D0001AF4709561957F4F0895F6F7909581956C
:1018E0009F4F0895AA1BBB1B51E107C0AA1FBB1F36
:1018F000A617B70710F0A61BB70B881F991F5A959C
:10190000A9F780959095BC01CD010895CF93DF9301
:10191000BC018230910510F462E070E0A091BC013E
:10192000B091BD01ED01E0E0F0E040E050E021C009
:10193000888199818617970769F48A819B813097FE
:1019400019F09383828304C09093BD018093BC01FE
:10195000FE0134C06817790738F44115510519F0B4
:101960008417950708F4AC01FE018A819B819C01D4
:10197000E9012097E9F641155105A9F1CA01861B35
:10198000970B049708F4BA01E0E0F0E02AC08D91CB
:101990009C91119784179507F9F46417750781F4E2
:1019A00012968D919C911397309719F093838283AF
:1019B00004C09093BD018093BC01FD0132964FC0DD
:1019C000CA01861B970BFD01E80FF91F6193719304
:1019D00002978D939C9343C0FD01828193819C016A
:1019E000D9011097A1F68091BA019091BB01892B82
:1019F00041F480911201909113019093BB01809367
:101A0000BA0140911401509115014115510541F45D
:101A10004DB75EB78091100190911101481B590B91
:101A20002091BA013091BB0124173507B0F4CA01E7
:101A3000821B930B8617970780F0AB014E5F5F4FB9
:101A40008417950750F0420F531F5093BB014093EA
:101A5000BA01F9016193719302C0E0E0F0E0CF01B7
:101A6000DF91CF910895CF93DF93009709F450C091
:101A7000EC0122971B821A82A091BC01B091BD019A
:101A8000109709F140E050E0AC17BD0708F1BB83A7
:101A9000AA83FE0121913191E20FF31FAE17BF0718
:101AA00079F48D919C911197280F391F2E5F3F4F2C
:101AB0003983288312968D919C9113979B838A83F7
:101AC0004115510571F4D093BD01C093BC0120C0F4
:101AD00012968D919C911397AD01009711F0DC0146
:101AE000D3CFFA01D383C28321913191E20FF31F47
:101AF000CE17DF0769F488819981280F391F2E5F7F
:101B00003F4FFA01318320838A819B8193838283B3
:101B1000DF91CF910895FB01DC0104C08D9101900C
:101B2000801921F441505040C8F7881B990B089543
:101B3000FB01DC0102C001900D9241505040D8F7EA
:101B40000895DC0101C06D9341505040E0F70895C5
:041B5000F894FFCF37
:101B54000081400000011A01800000000000000024
:061B64002000BE0100009C
:00000001FF
